:020000040800F2
:100000000000032099080008B1060008B3060008A4
:10001000B5060008B7060008B90600080000000091
:10002000000000000000000000000000BB06000807
:10003000BD06000800000000BF060008C106000859
:10004000E9080008E9080008E9080008E9080008CC
:10005000E9080008E9080008E9080008E9080008BC
:10006000E9080008E9080008E9080008E9080008AC
:10007000C9060008E9080008E9080008E9080008BE
:10008000E9080008E9080008E9080008E90800088C
:10009000E9080008E9080008E9080008E90800087C
:1000A000E9080008E9080008E9080008E90800086C
:1000B000E9080008E9080008E9080008E90800085C
:1000C000E9080008E9080008E9080008E90800084C
:1000D000E9080008E9080008E9080008D90600084E
:1000E000E9080008E9080008E9080008E90800082C
:1000F000E9080008E9080008E9080008E90800081C
:10010000E9080008E9080008E9080008E90800080B
:10011000E9080008E9080008E9080008E9080008FB
:10012000E9080008E9080008E9080008E9080008EB
:10013000E9080008E9080008E9080008E9080008DB
:10014000E9080008E9080008E9080008E9080008CB
:10015000E9080008E9080008E9080008E9080008BB
:10016000E9080008E9080008E9080008E9080008AB
:10017000E9080008E9080008E90800080000000094
:10018000E9080008E9080008E9080008E90600088D
:10019000E9080008E9080008E9080008E90800087B
:0C01A0000000000000000000E90800085A
:1001AC0010B5054C237833B9044B13B10448AFF3A5
:1001BC0000800123237010BD1400002000000000FB
:1001CC00EC1F000808B5034B1BB103490348AFF300
:1001DC00008008BD0000000018000020EC1F000883
:1001EC0053B94AB9002908BF00281CBF4FF0FF3192
:1001FC004FF0FF3000F06AB9ADF1080C6DE904CE98
:10020C0000F006F8DDF804E0DDE9022304B07047E5
:10021C002DE9F047089D0C46002B4ED194468C4599
:10022C008646B2FA82F262D94AB1C2F120039140F9
:10023C0020FA03F30CFA02FC194300FA02FE4FEA0F
:10024C001C471FFA8CF6B1FBF7F44FEA1E4307FB71
:10025C00141143EA014304FB06F199420AD91CEB41
:10026C00030304F1FF3080F01281994240F20F81B8
:10027C00023C6344591A1FFA8EF3B1FBF7F007FBEB
:10028C00101143EA014300FB06F69E420AD91CEB0F
:10029C00030300F1FF3180F0FC809E4240F2F980B4
:1002AC00634402389B1B40EA044000211DB1D3403B
:1002BC000022C5E90032BDE8F0878B4205D90DB1AB
:1002CC00C5E9000100210846F5E7B3FA83F10029DE
:1002DC0046D1A34202D39042C0F0F080861A64EB60
:1002EC0003030120002DE6D0C5E90063E3E7002AF3
:1002FC0040F09080A1EB0C044FEA1C481FFA8CF7DD
:10030C000121B4FBF8F64FEA1E4308FB164443EAFE
:10031C00044307FB06F0984208D91CEB030306F1D3
:10032C00FF3402D2984200F2CD8026461C1A1FFAE6
:10033C008EF3B4FBF8F008FB104443EA044300FBD3
:10034C0007F79F4208D91CEB030300F1FF3402D2DC
:10035C009F4200F2B0802046DB1B40EA0640A5E736
:10036C00C1F120068B4022FA06F71F4320FA06FC47
:10037C0004FA01F343EA0C03F44000FA01F8380CD8
:10038C004FEA1349B4FBF0FE1FFA87FC00FB1E4436
:10039C0049EA04440EFB0CF9A14502FA01F20AD910
:1003AC003C190EF1FF3A80F08480A14540F2818027
:1003BC00AEF1020E3C44A4EB09041FFA83F9B4FB22
:1003CC00F0F300FB134449EA044403FB0CFCA44582
:1003DC0007D93C1903F1FF3067D2A44565D9023B1C
:1003EC003C4443EA0E40A0FB0293A4EB0C049C4259
:1003FC00CE469C4651D34ED055B1B8EB0E0364EBB0
:10040C000C0404FA06F6CB401E43CC40C5E900644C
:10041C00002150E7C2F1200320FA03F10CFA02FC90
:10042C0024FA03F394400C434FEA1C4800FA02FEF2
:10043C001FFA8CF7B3FBF8F008FB1031230C43EADE
:10044C00014300FB07F1994208D91CEB030300F1AF
:10045C00FF362CD299422AD9023863445B1AA4B2D3
:10046C00B3FBF8F108FB113344EA034401FB07F337
:10047C00A34208D91CEB040401F1FF3613D2A342AA
:10048C0011D902396444E41A41EA004139E70446BF
:10049C00F0E6084606E7C845AED2B9EB020E63EBB0
:1004AC00070C0138A8E73146EDE7034699E73046DB
:1004BC00D4E7D6467FE7634402384DE70646234629
:1004CC0008460FE7023E634430E700BF704700BFA9
:1004DC0000B583B000210191094B1A6B42F4001254
:1004EC001A631B6B03F400130193019B0A460C2047
:1004FC0000F0A2FA0C2000F0AFFA03B05DF804FB98
:10050C000038024084B000220092154B196B41F068
:10051C0010011963196B01F01001009100990192FF
:10052C00196B41F001011963196B01F00101019183
:10053C0001990292196B41F004011963196B01F0D6
:10054C0004010291029903921A6B42F080021A6321
:10055C001B6B03F080030393039B04B0704700BF35
:10056C000038024072B6FEE700B595B0302200218B
:10057C0008A801F0A3FC00230393049305930693AE
:10058C0007930193234A116C41F080511164126C52
:10059C0002F080520192019A02931F4B1A6842F4A6
:1005AC0040421A601B6803F440430293029B0123F0
:1005BC0008934FF48033099302230E934FF4800277
:1005CC000F920F221092D82211921293042313939C
:1005DC0008A800F0C1FDB0B900F080FDA8B90F2348
:1005EC00039302230493002305934FF4A053069323
:1005FC004FF480530793052103A800F0FDFF30B999
:10060C0015B05DF804FBFFF7ADFFFFF7ABFFFFF78D
:10061C00A9FF00BF003802400070004008B500F090
:10062C0085F9FFF7A1FFFFF76DFFFFF751FF00F012
:10063C007BF800F05DF80B4D0B4CC82301222946CA
:10064C00204601F006FA4FF4FA7000F09BF9C8232B
:10065C000122A918204601F0FCF94FF4FA7000F0C1
:10066C0091F9E8E700000020D400002082B00021BE
:10067C0000910B4B5A6C42F480425A645A6C02F44F
:10068C0080420092009A01911A6C42F080521A64D6
:10069C001B6C03F080530193019B02B0704700BFA9
:1006AC0000380240FEE7FEE7FEE7FEE7FEE7704794
:1006BC007047704708B500F053F908BD08B50248FB
:1006CC0000F018FB08BD00BF3000002008B5024840
:1006DC0001F0B6FA08BD00BF9000002008B5024832
:1006EC0001F0AEFA08BD00BFD40000207047000036
:1006FC0008B50A480A4B03600A4B43600023836029
:10070C00C36003610C2242618361C36101F072F921
:10071C0000B908BDFFF726FFFBE700BFD40000209F
:10072C00007C0040A086010008B50C480C4B03600F
:10073C000C4B43604FF4805383600023C3604FF431
:10074C00806202610C2242618361C36101F052F943
:10075C0000B908BDFFF706FFFBE700BF90000020C3
:10076C0000480040A086010030B58BB000230593F3
:10077C00069307930893099303683D4A934205D067
:10078C0004463C4A93422BD00BB030BD002401945C
:10079C00394B1A6C42F000421A641A6C02F0004297
:1007AC000192019A02941A6B42F010021A631B6BAD
:1007BC0003F010030293029B03230593022206927B
:1007CC0008930823099305A92C4800F081FB2246C5
:1007DC002146532000F030F9532000F03DF9D3E7C7
:1007EC0000250395244B1A6C42F480221A641A6C6F
:1007FC0002F480220392039A04951A6B42F00402CD
:10080C001A631B6B03F004030493049B4FF44063C3
:10081C00059302230693032308930723099305A941
:10082C00174800F055FB1748174B03604FF0006357
:10083C0043608560C5604FF48063036145618561E9
:10084C004FF48073C3610562456200F08FF958B9AB
:10085C000C4BA3639C6300221146272000F0ECF89C
:10086C00272000F0F9F88FE7FFF77CFEF0E700BFD8
:10087C00007C00400048004000380240001002405C
:10088C00000802403000002028600240DFF834D01D
:10089C000D480E490E4A002302E0D458C4500433CC
:1008AC00C4188C42F9D30B4A0B4C002301E01360A3
:1008BC000432A242FBD3FFF719FF01F007FBFFF74D
:1008CC00ADFE704700000320000000201400002043
:1008DC003820000814000020B4020020FEE70000BD
:1008EC0010B504460E4B1A784FF47A73B3FBF2F33F
:1008FC000C4A1068B0FBF3F000F0BCF868B90F2C90
:10090C0001D901200AE0002221464FF0FF3000F00F
:10091C0093F8054B1C60002000E0012010BD00BFC7
:10092C0008000020040000200C00002008B50B4B30
:10093C001A6842F400721A601A6842F480621A60F3
:10094C001A6842F480721A60032000F063F80F20DA
:10095C00FFF7C6FFFFF78AFE002008BD003C0240EF
:10096C00034A1168034B1B780B441360704700BF9C
:10097C001801002008000020014B1868704700BFC8
:10098C001801002038B50446FFF7F6FF0546B4F110
:10099C00FF3F02D0044B1B781C44FFF7EDFF401BBC
:1009AC00A042FAD338BD00BF08000020002808DBA5
:1009BC000901C9B200F1604000F5614080F80013F4
:1009CC00704700F00F000901C9B2014B1954704770
:1009DC0014ED00E000B500F00700C0F1070CBCF10D
:1009EC00040F28BF4FF0040C031D062B0FD9C31E98
:1009FC004FF0FF3E0EFA0CF021EA000199400EFA7E
:100A0C0003FE22EA0E0241EA02005DF804FB002319
:100A1C00EEE70000074AD36823F4E0631B041B0CC9
:100A2C00000200F4E060034343F0BF6343F400337F
:100A3C00D360704700ED00E010B50446054BD86854
:100A4C00C0F30220FFF7C6FF01462046FFF7AEFFBA
:100A5C0010BD00BF00ED00E0002807DB00F01F0216
:100A6C00400901239340024A42F82030704700BFEE
:100A7C0000E100E00138B0F1807F0BD24FF0E023B1
:100A8C005861054AF02182F8231000209861072252
:100A9C001A6170470120704700ED00E010B4036844
:100AAC00D9B210390B4AA2FB014212090A4CA25CC2
:100ABC00C2655F2908D923F47F7323F00303043341
:100ACC008365806D10BC704723F47F7323F00303A0
:100ADC008365F6E7ABAAAAAA1C200008836A826980
:100AEC0092B9012B0AD0022B02D00BB10020704717
:100AFC00C36A13F0807F28D100207047C36AB3F11A
:100B0C00C07F24D000207047B2F5005F09D0022BC3
:100B1C0025D9032B25D1C36A13F0807F23D1002064
:100B2C007047032B03D8DFE803F01404140A0020E9
:100B3C007047C36A13F0807F0DD100207047C36AE1
:100B4C00B3F1C07F09D0002070470120704701200D
:100B5C007047012070470120704701207047012029
:100B6C0070470020704701207047000070B50446A4
:100B7C00FFF702FF002C5BD00546022384F83530CA
:100B8C00002384F834302268136823F001031360C7
:100B9C0023681A6812F0010F0AD0FFF7EDFE431B11
:100BAC00052BF5D920236365032084F8350070BD2F
:100BBC001A68204911406268A0680243E068024349
:100BCC002069024360690243A0690243E069024361
:100BDC00206A02430A43616A04291ED01A602668FF
:100BEC00756925F00705636A1D43042B07D1A36AB9
:100BFC001D43E36A1BB12046FFF770FF90B9756186
:100C0C002046FFF74BFFE26D3F23934083600020AB
:100C1C006065012384F83530C9E7E16A206B014334
:100C2C000A43DBE740236365012084F83500BEE707
:100C3C000120BCE73F8010F070B50446866DFFF7CD
:100C4C009BFE94F83530DBB2022B06D08023636513
:100C5C00002384F83430012070BD054622681368E7
:100C6C0023F0160313602268536923F08003536149
:100C7C00236CE3B12268136823F008031360226825
:100C8C00136823F00103136023681B6813F0010F32
:100C9C0011D0FFF771FE431B052BF5D9202363659B
:100CAC00032084F83500002384F83430D4E7A36C97
:100CBC00002BDFD1E3E7E26D3F239340B3600123C8
:100CCC0084F83530002084F83400C5E790F83530CE
:100CDC00DBB2022B03D08023436501207047052330
:100CEC0080F835300268136823F00103136000208C
:100CFC0070470000F0B583B0044600230193724B9B
:100D0C001D68724BA3FB0535AD0A876D3E68C26D3D
:100D1C0008239340334210D003681A6812F0040F72
:100D2C000BD01A6822F004021A60C26D082393409B
:100D3C00BB60436D43F001034365E26D01239340B7
:100D4C00334209D02268526912F0800F04D0BB6084
:100D5C00636D43F002036365E26D042393403342F9
:100D6C0009D02268126812F0020F04D0BB60636DC8
:100D7C0043F004036365E26D10239340334224D0A7
:100D8C002268126812F0080F1FD0BB6023681A6823
:100D9C0012F4802F0DD01B6813F4002F04D1236C98
:100DAC009BB12046984710E0A36C73B1204698473E
:100DBC000BE01A6812F4807F03D11A6822F0080243
:100DCC001A60236C0BB120469847E26D20239340A8
:100DDC00334255D02268126812F0100F50D0BB600D
:100DEC0094F83530DBB2052B0ED023681A6812F458
:100DFC00802F33D01B6813F4002F2AD1636C002B87
:100E0C003ED0204698473BE02268136823F0160337
:100E1C0013602268536923F080035361236CA3B1E0
:100E2C002268136823F008031360E26D3F2393409C
:100E3C00BB60012384F83530002384F83430236DF3
:100E4C00002B3FD0204698473CE0A36C002BE7D109
:100E5C00EBE7E36BA3B12046984711E01A6812F454
:100E6C00807F09D11A6822F010021A60012384F8DD
:100E7C003530002384F83430E36B0BB120469847AF
:100E8C00636DFBB1636D13F0010F17D0052384F86C
:100E9C0035302268136823F001031360019B013382
:100EAC000193AB4204D823681B6813F0010FF5D1F2
:100EBC00012384F83530002384F83430E36C0BB113
:100ECC002046984703B0F0BD04000020B5814E1BAE
:100EDC0000230F2B00F2F98030B583B069E08568F0
:100EEC004FEA430E032404FA0EF425EA0405CC68F9
:100EFC0004FA0EF42C438460446824EA02044A6821
:100F0C00C2F300129A402243426060E0DC080834CD
:100F1C0050F8242003F00705AD004FF00F0E0EFA29
:100F2C0005FE22EA0E0E0A69AA4042EA0E0240F8B9
:100F3C00242060E0092200E0002202FA0EF22A438B
:100F4C000234624D45F82420614A94686FEA0C0221
:100F5C0024EA0C05D1F804E01EF4801F01D04CEA01
:100F6C0004055B4CA560E46802EA0405D1F804E0D2
:100F7C001EF4001F01D04CEA0405554CE560646872
:100F8C0002EA0405D1F804E01EF4003F01D04CEA5B
:100F9C0004054F4C6560246822404D6815F4803F71
:100FAC0001D04CEA04024A4C226001330F2B00F2B0
:100FBC008A8001229A400C6804EA020C32EA04048A
:100FCC00F3D14C6804F00304013C012C87D94A6826
:100FDC0002F00302032A09D0C4685D000322AA4070
:100FEC0024EA02048A68AA402243C2604A6802F0DA
:100FFC000302022A8AD004684FEA430E032202FA43
:10100C000EF224EA02044A6802F0030202FA0EF21B
:10101C00224302604A6812F4403FC6D0002201927B
:10102C002C4A546C44F480445464526C02F4804254
:10103C000192019A9C08A51C244A52F8255003F0F1
:10104C00030E4FEA8E0E0F2202FA0EF225EA02056B
:10105C00214A90423FF470AF02F58062904222D058
:10106C0002F58062904220D002F5806290421ED040
:10107C0002F5806290421CD002F5806290421AD038
:10108C0002F58062904218D002F58062904216D030
:10109C0002F58062904214D002F5806290423FF4D7
:1010AC0049AF0A2249E7012247E7022245E703221A
:1010BC0043E7042241E705223FE706223DE70722EA
:1010CC003BE7082239E703B030BD704700380140D8
:1010DC00003C0140003802400000024010B582B0D4
:1010EC0000230193194B1A6C42F080521A641B6C4A
:1010FC0003F080530193019B154B01221A64FFF7F7
:10110C003BFC0446134B5B6813F4803F08D1FFF79C
:10111C0033FC001BB0F57A7FF4D9032002B010BD6C
:10112C000B4B01225A64FFF727FC0446094B5B6802
:10113C0013F4003F07D1FFF71FFC001BB0F57A7FBB
:10114C00F4D90320EAE70020E8E700BF00380240AA
:10115C0000000E4200700040002800F0E08170B5E5
:10116C0082B00446036813F0010F3BD09F4B9B6881
:10117C0003F00C03042B2CD09C4B9B6803F00C034A
:10118C00082B21D06368B3F5803F4FD0B3F5A02F67
:10119C0052D0964B1A6822F480321A601A6822F4E4
:1011AC0080221A606368002B50D0FFF7E5FB0546E0
:1011BC008E4B1B6813F4003F14D1FFF7DDFB401B73
:1011CC006428F5D90320B1E1884B5B6813F4800FD8
:1011DC00D8D0864B1B6813F4003F03D06368002BF8
:1011EC0000F09F81236813F0020F54D07F4B9B6853
:1011FC0013F00C0F3ED07D4B9B6803F00C03082BB7
:10120C0033D0E368002B68D0794B01221A60FFF7CA
:10121C00B3FB0546754B1B6813F0020F54D1FFF757
:10122C00ABFB401B0228F5D903207FE16F4A136802
:10123C0043F480331360B5E76C4B1A6842F4802298
:10124C001A601A6842F480321A60ABE7FFF794FB1D
:10125C000546664B1B6813F4003FC3D0FFF78CFBAD
:10126C00401B6428F5D9032060E1604B5B6813F4E4
:10127C00800FC6D15D4B1B6813F0020F03D0E368DF
:10128C00012B40F05081594A136823F0F80321696F
:10129C0043EAC1031360236813F0080F42D063695B
:1012AC006BB3534B0122C3F8802EFFF765FB054649
:1012BC004E4B5B6F13F0020F34D1FFF75DFB401BFD
:1012CC000228F5D9032031E1484A136823F0F803CA
:1012DC00216943EAC1031360DDE7454B00221A6024
:1012EC00FFF74AFB0546414B1B6813F0020FD2D0A7
:1012FC00FFF742FB401B0228F5D9032016E13C4BBB
:10130C000022C3F8802EFFF737FB0546374B5B6F87
:10131C0013F0020F06D0FFF72FFB401B0228F5D964
:10132C00032003E1236813F0040F77D02F4B1B6CC1
:10133C0013F0805F33D1002301932C4B1A6C42F0D5
:10134C0080521A641B6C03F080530193019B01259E
:10135C00284B1B6813F4807F23D0A368012B34D057
:10136C00052B38D0214B1A6F22F001021A671A6F25
:10137C0022F004021A67A368002B3DD0FFF7FCFA99
:10138C0006461A4B1B6F13F0020F46D1FFF7F4FA07
:10139C00801B41F288339842F3D90320C6E0002524
:1013AC00D6E7144A136843F480731360FFF7E4FA2A
:1013BC000646104B1B6813F4807FCED1FFF7DCFA86
:1013CC00801B0228F5D90320B0E0084A136F43F0C4
:1013DC0001031367CFE7054B1A6F42F004021A673B
:1013EC001A6F42F001021A67C5E700BF00380240CD
:1013FC000000474200700040FFF7BEFA0646524B11
:10140C001B6F13F0020F08D0FFF7B6FA801B41F2E6
:10141C0088339842F3D9032088E0EDB9A369002BF7
:10142C0000F08380484A926802F00C02082A51D0DE
:10143C00022B17D0454B00221A66FFF79DFA044683
:10144C00414B1B6813F0007F42D0FFF795FA001B4D
:10145C000228F5D9032069E03B4A136C23F0805332
:10146C001364DBE7394B00221A66FFF785FA054651
:10147C00354B1B6813F0007F06D0FFF77DFA401B3D
:10148C000228F5D9032051E0E369226A1343626A0A
:10149C0043EA8213A26A5208013A43EA0243E26A1F
:1014AC0043EA0263284A5360284B01221A66FFF76D
:1014BC0063FA0446244B1B6813F0007F06D1FFF738
:1014CC005BFA001B0228F5D903202FE000202DE049
:1014DC0000202BE0012B2BD01B4B5B6803F480010D
:1014EC00E269914226D103F03F02216A8A4223D15C
:1014FC00616A47F6C0721A40B2EB811F1ED103F429
:10150C004031A26A5208013AB1EB024F18D103F0F4
:10151C007063E26AB3EB026F14D1002006E0012085
:10152C007047012002E0012000E0002002B070BDF5
:10153C000120FBE70120F9E70120F7E70120F5E79F
:10154C000120F3E70120F1E7003802400000474298
:10155C0008B5264B9B6803F00C03042B41D0082BD9
:10156C0041D1224B5A6802F03F025B6813F4800FA2
:10157C0012D01E4B5968C1F388111D480023A1FBE2
:10158C000001FEF72DFE194B5B68C3F301430133D9
:10159C005B00B0FBF3F027E0144B5868C0F38810E5
:1015AC004FEA401CBCEB000C6EEB0E0E4FEA8E1398
:1015BC0043EA9C634FEA8C11B1EB0C0163EB0E0315
:1015CC00DB0043EA5173C90011EB000C43F100033B
:1015DC00990200234FEA8C2041EA9C51FEF700FE51
:1015EC00D1E7034800E0034808BD00BF00380240C3
:1015FC0040787D010024F400002800F09B8070B539
:10160C000D4604464F4B1B6803F00F038B4208D268
:10161C00CBB24C4A1370136803F00F038B4240F0AB
:10162C008B80236813F0020F17D013F0040F04D033
:10163C00454A936843F4E0539360236813F0080F12
:10164C0004D0414A936843F4604393603E4A9368E4
:10165C0023F0F003A1680B439360236813F0010F90
:10166C0032D06368012B21D09A1E012A25D9364A23
:10167C00126812F0020F61D033498A6822F003021B
:10168C0013438B60FFF778F906462F4B9B6803F0EA
:10169C000C036268B3EB820F16D0FFF76DF9801B59
:1016AC0041F288339842F0D9032042E0264A12686E
:1016BC0012F4003FE0D101203BE0234A126812F003
:1016CC00007FD9D1012034E01E4B1B6803F00F03BF
:1016DC00AB4207D9EAB21B4B1A701B6803F00F031D
:1016EC00AB422DD1236813F0040F06D0164A936831
:1016FC0023F4E053E1680B439360236813F0080F65
:10170C0007D0114A936823F46043216943EAC1036B
:10171C009360FFF71DFF0C4B9B68C3F303130B4A3D
:10172C00D35CD8400A4B18600A4B1868FFF7D8F8FE
:10173C00002070BD012070470120FAE70120F8E776
:10174C000120F6E7003C0240003802400C20000863
:10175C00040000200C000020014B1868704700BFEB
:10176C000400002008B5FFF7F7FF044B9B68C3F398
:10177C008223034AD35CD84008BD00BF0038024026
:10178C000420000808B5FFF7E7FF044B9B68C3F380
:10179C004233034AD35CD84008BD00BF0038024036
:1017AC0004200008026802F10C0353E8003F23F404
:1017BC0090730C3242E800310029F3D1026802F137
:1017CC00140353E8003F23F00103143242E80031C4
:1017DC000029F3D1036B012B05D0202380F83E3078
:1017EC00002303637047026802F10C0353E8003FC7
:1017FC0023F010030C3242E800310029F3D1ECE75E
:10180C0090F83D30DBB2212B01D002207047836869
:10181C00B3F5805F17D0036A5A1C02621A7803680A
:10182C005A60C38C9BB2013B9BB2C3844BB9026818
:10183C00D36823F08003D3600268D36843F040037D
:10184C00D360002070470369002BE4D1036A1B8826
:10185C000268C3F308035360036A02330362E0E7D0
:10186C0010B504460268136923F44053C1680B4356
:10187C001361836802691A4343691A43C3691A43A3
:10188C000168CB6823F4164323F00C031343CB609D
:10189C000268536923F4407381690B4353610368F5
:1018AC00314A934206D002F58062934202D0FFF790
:1018BC0059FF01E0FFF766FFE369B3F5004F29D04C
:1018CC000021031849411B1841F10001C90041EAEC
:1018DC005371DB00181863684FEA83024FEA937365
:1018EC0041F10001FEF77CFC204AA2FB00314909C2
:1018FC00642303FB11031B013233A2FB03235B099B
:10190C0003F0F00202EB011203F00F032168134401
:10191C008B6010BD0023021843EB0301121841F138
:10192C000001C90041EA5271D200101841F10001C6
:10193C00626892185B41FEF753FC0C4AA2FB003123
:10194C004909642303FB1103DB003233A2FB03239D
:10195C005B095A0002F4F87202EB011203F0070360
:10196C00216813448B60D4E7001001401F85EB51B4
:10197C002DE9F84305460F4616469946DDF82080BA
:10198C002B681C6837EA04040CBF01240024B44201
:10199C002DD1B8F1FF3FF3D0B8F1000F05D0FEF711
:1019AC00EBFFA0EB09004045EAD92A6802F10C03D1
:1019BC0053E8003F23F4D0730C3242E80031002985
:1019CC00F3D12A6802F1140353E8003F23F001031A
:1019DC00143242E800310029F3D1202385F83D3040
:1019EC0085F83E30002385F83C30032000E00020D1
:1019FC00BDE8F88358B310B5044690F83D300BB3EE
:101A0C00242384F83D302268D36823F40053D36038
:101A1C002046FFF725FF2268136923F490431361D6
:101A2C002268536923F02A0353612268D36843F474
:101A3C000053D36000202064202384F83D3084F8C8
:101A4C003E3010BD80F83C30FEF78EFED8E701200A
:101A5C0070472DE9F04182B01E4690F83D30DBB264
:101A6C00202B54D104460D469046002953D0002A11
:101A7C0053D090F83C30012B51D0012380F83C30EE
:101A8C0000230364212380F83D30FEF775FF0746E1
:101A9C00A4F82480A4F82680A368B3F5805F05D051
:101AAC004FF00008002384F83C3012E0236913B196
:101ABC004FF00008F6E7A8460025F3E738F8023B9C
:101ACC002268C3F308035360E28C92B2013A92B2DB
:101ADC00E284E38C9BB273B100963B4600228021DA
:101AEC002046FFF745FFE0B9002DE7D015F8012B94
:101AFC0023685A60E8E700963B46002240212046C6
:101B0C00FFF736FF78B9202384F83D3000E002203F
:101B1C0002B0BDE8F0810120FAE70120F8E70220CD
:101B2C00F6E70320F4E70320F2E7704708B50168F5
:101B3C00CA6822F04002CA60202280F83D20FFF7DC
:101B4C00F4FF002008BD7047704708B5806B002378
:101B5C00C385C384FFF7F8FF08BD704790F83E308B
:101B6C00DBB2222B67D18368B3F5805F4DD0826ADC
:101B7C00B3F5805F04D0002B54D10369002B51D1F5
:101B8C0003685B681370836A01338362C38D9BB2F5
:101B9C00013B9BB2C385002B4FD100B583B00268CB
:101BAC00D36823F02003D3600268D36823F48073D6
:101BBC00D3600268536923F001035361202380F83A
:101BCC003E30036B012B33D100230363026802F117
:101BDC000C0353E8003F23F010030C3242E80031B1
:101BEC000029F3D103681A6812F0100F06D00022F6
:101BFC0001921A6801925B680193019B818DFFF73A
:101C0C00ACFF002003B05DF804FB0269002AAED1E2
:101C1C00826A03685B68C3F308031380836A023328
:101C2C008362B3E703685B6803F07F031370AAE772
:101C3C00FFF789FFE5E7022070470020704700009E
:101C4C0010B582B0044602681368D068516913F06D
:101C5C000F0F09D113F0200F0CD010F0200F09D06A
:101C6C002046FFF77BFF16E011F0010115D110F4AF
:101C7C00907F12D1216B012979D013F0800F03D002
:101C8C0010F0800F40F0108113F0400F03D010F0D3
:101C9C00400F40F00D8102B010BD13F0010F06D0C3
:101CAC0010F4807F03D0226C42F00102226413F006
:101CBC00040F04D019B1226C42F00202226413F01A
:101CCC00020F04D019B1226C42F00402226413F00A
:101CDC00080F07D010F0200F00D119B1226C42F080
:101CEC0008022264226C002AD5D013F0200F02D0F7
:101CFC0010F0200F29D123685B6903F04003226C9C
:101D0C0012F0080F00D163B32046FFF74BFD236898
:101D1C005B6913F0400F20D0226802F1140353E8E2
:101D2C00003F23F04003143242E800310029F3D184
:101D3C00A36B73B1604A1A65A06BFEF7C7FF00284E
:101D4C00A9D0A06B036D9847A5E72046FFF706FFC7
:101D5C00D1E72046FFF7F8FE9DE72046FFF7F4FE9B
:101D6C0099E72046FFF7F0FE0023236493E713F076
:101D7C00100F82D010F0100F3FF47FAF00230193AF
:101D8C001368019353680193019B536913F0400F3F
:101D9C0050D0A26B13685B689BB2002B3FF47BAFF7
:101DAC00A18D99427FF677AFE385D369B3F5807F38
:101DBC0037D0226802F10C0353E8003F23F4807300
:101DCC000C3242E800310029F3D1226802F11403ED
:101DDC0053E8003F23F00103143242E8003100299C
:101DEC00F3D1226802F1140353E8003F23F04003BF
:101DFC00143242E800310029F3D1202384F83E301C
:101E0C0000232363226802F10C0353E8003F23F004
:101E1C0010030C3242E800310029F3D1A06BFEF71D
:101E2C000BFFA18DE38D9BB2C91A89B22046FFF737
:101E3C0094FE30E7A18DE38D9BB2C91A89B2E38D74
:101E4C009BB2002B3FF427AF00293FF424AF22684C
:101E5C0002F10C0353E8003F23F490730C3242E878
:101E6C0000300028F3D1226802F1140353E8003F3C
:101E7C0023F00103143242E800300028F3D1202370
:101E8C0084F83E3000232363226802F10C0353E8EC
:101E9C00003F23F010030C3242E800300028F3D14D
:101EAC002046FFF75AFEF6E62046FFF7A9FCF2E6BD
:101EBC002046FFF73BFEEEE6571B000802440346A4
:101ECC00934200D1704703F8011BF9E770B50D4D33
:101EDC000D4C641BA4100026A64209D10B4D0C4CD2
:101EEC0000F07EF8641BA4100026A64205D170BD3C
:101EFC0055F8043B98470136EEE755F8043B9847F4
:101F0C000136F2E72C2000082C2000082C200008B9
:101F1C003420000870477047024B13B1024800F0A0
:101F2C0005B8704700000000451F0008002301465B
:101F3C001A46184600F014B838B5074D074C641B08
:101F4C00A4101CB9BDE8384000F050B8013C55F85D
:101F5C0024309847F5E700BF3420000838200008EB
:101F6C002DE9F047DFF86CA00646DAF80000984639
:101F7C000F469146FFF7CEFF174B1C680CB9174C58
:101F8C001C606568DAF800001F2D05DDFFF7C3FF44
:101F9C004FF0FF30BDE8F0879EB104EB85010122C4
:101FAC00C1F88890D4F88831AA401343C4F888311A
:101FBC00022EC1F8088102BFD4F88C311343C4F847
:101FCC008C316B1C0235636044F82570FFF7A3FF5E
:101FDC000020DFE710000020200100202401002059
:101FEC00F8B500BFF8BC08BC9E467047F8B500BFFA
:081FFC00F8BC08BC9E467047CA
:1020040000000000010203040000000000000000C2
:10201400010203040607080900061016000610163C
:08202400F8E1FF7F010000005C
:08202C00251F0008D101000886
:04203400AD010008F2
:10203800643200000024F4000100000010000000D9
:042048001C01002057
:04000005080008994E
:00000001FF
